:100000000C9463000C948B000C948B000C948B006C
:100010000C948B000C948B000C948B000C94730448
:100020000C948B000C948B000C948B000C94190591
:100030000C948B000C948B000C948B000C948B0014
:100040000C94CF040C948B000C948B000C948B00BC
:100050000C948B000C948B000C948B000C948B00F4
:100060000C948B000C948B000000000024002700EF
:100070002A000000000023002600290000000008DC
:10008000000201000003040700000000000000005F
:10009000010204081020408001020408102001021F
:1000A0000408102000000000250028002B00040494
:1000B0000404040404040202020202020303030310
:1000C00003030200360711241FBECFEFD8E0DEBFC6
:1000D000CDBF11E0A0E0B1E0E6E1F1E102C00590A2
:1000E0000D92AC35B107D9F721E0ACE5B1E001C024
:1000F0001D92A93BB207E1F710E0C3E6D0E004C0CF
:100100002197FE010E948308C236D107C9F70E94D9
:10011000D5050C9489080C940000CF92DF92EF92E1
:10012000FF92DC01A03282E0B807D4F5A53BB1050F
:1001300014F0A4EBB0E040919F0128E830E0241BCC
:10014000310947FD3395220F331F220F331F6901F9
:10015000330FEE08FF084091A00128E532E0241B90
:10016000310947FD3395220F331F220F331F032E12
:10017000000C440B550B2C193D094E095F09B7FFC4
:1001800002C0B0E0A0E00E943E0824EB30E040E076
:1001900050E00E941408C20ED31EE41EF51ED601C4
:1001A000E0919E01EC3080F520919F0188E890E07D
:1001B000821B910927FD9395880F991F880F991F1E
:1001C000A817B90784F02091A00188E592E0821B6E
:1001D000910927FD9395880F991F880F991FA817DC
:1001E000B9070CF4CD010297880F991F4FB7F89407
:1001F0002E2F30E0F901EE0FFF1FE20FF31FE6583C
:10020000FE4F928381834FBFFF90EF90DF90CF909E
:100210000895AF92BF92CF92DF92EF92FF920F9329
:100220001F93CF93DF936C017B018B01040F151F8C
:10023000EB015E01AE18BF08C017D10759F06991F4
:10024000D601ED91FC910190F081E02DC601099558
:10025000892B79F7C501DF91CF911F910F91FF9005
:10026000EF90DF90CF90BF90AF900895833081F0F2
:1002700028F4813099F08230A9F008958730A9F0F0
:100280008830C9F08430B1F4809180008F7D03C044
:10029000809180008F7780938000089584B58F7758
:1002A00084BD089584B58F7DFBCF8091B0008F779A
:1002B0008093B00008958091B0008F7DF9CFCF93E7
:1002C000DF93282F30E0F901E458FF4F8491F901C2
:1002D000E057FF4FD491F901E255FF4FC491CC2371
:1002E000A1F081110E943601EC2FF0E0EE0FFF1F0C
:1002F000EE58FF4FA591B491EC91ED2381E090E091
:1003000009F480E0DF91CF91089580E090E0FACF8A
:100310001F93CF93DF93282F30E0F901E458FF4F6C
:100320008491F901E057FF4FD491F901E255FF4F55
:10033000C491CC23A9F0162F81110E943601EC2F15
:10034000F0E0EE0FFF1FEC55FF4FA591B4918FB772
:10035000F894EC91111108C0D095DE23DC938FBF87
:10036000DF91CF911F910895DE2BF8CF909100017E
:1003700089130BC0E2ECF0E0E4919FEF9093000151
:10038000E13049F028F0E23061F060E00C9488013F
:1003900010926E00FACF90916F009D7F90936F0046
:1003A000F4CF909170009D7F9093700091E09093B6
:1003B000B0009091B100987F94609093B10010923A
:1003C000B300E3CFCF93DF9390E0FC01E057FF4F02
:1003D000249182559F4FFC0184918823D1F090E0B5
:1003E000880F991FFC01E859FF4FA591B491FC01BA
:1003F000EC55FF4FC591D49161110EC09FB7F89491
:100400008C91E22FE0958E238C932881E223E88360
:100410009FBFDF91CF9108958FB7F894EC91E22BB5
:10042000EC938FBFF6CF0F931F93CF938B019091D7
:100430000001891731F09F3FC1F1CF911F910F91BA
:100440000895E2ECF0E0C491C7FDF7CF61E00E94AF
:10045000E201CC2319F0C23009F0ADC0980150E0A0
:1004600040E060E472E48FE090E00E941408BA017A
:10047000A9014150510961097109C1118FC085B5A8
:10048000887F826085BD47BD8FEF9FEFDC01809341
:10049000760190937701A0937801B09379018091D0
:1004A0006E00826080936E00C8CF80930001E2EC02
:1004B000F0E0C491CF3F09F4C0CFC13039F148F02A
:1004C000C23009F445C0C7FDB8CF61E00E94E20127
:1004D000C2CF14BC15BC94B5926094BD95B5916023
:1004E00095BD282F30E0F901E255FF4FE491F0E08F
:1004F000EE0FFF1FEC55FF4F45915491F901E05766
:10050000FF4FE491E0936D01C0E0A0CF1092800016
:100510001092810090918100986090938100909159
:100520008100916090938100282F30E0F901E2551D
:10053000FF4FE491F0E0EE0FFF1FEC55FF4F4591A8
:100540005491F901E057FF4FE491E0936C017ECFA5
:100550001092B0001092B1009091B0009260909310
:10056000B0009091B10091609093B100282F30E0DD
:10057000F901E255FF4FE491F0E0EE0FFF1FEC555B
:10058000FF4F4591549150936B0140936A01F901DB
:10059000E057FF4FE491E093690158CF8091B1009B
:1005A000887F82608093B100C130E1F0C23079F180
:1005B000C11143CF68CF980150E040E060E072E1A4
:1005C0008AE790E00E941408BA01A901415051093C
:1005D00061097109C13041F780918100887F816094
:1005E0008093810050938900409388008FEF9FEFA4
:1005F000DC018093720190937301A0937401B09316
:10060000750180916F00826080936F0016CF4093D8
:10061000B3008FEF9FEFDC0180936E0190936F0129
:10062000A0937001B09371018091700082608093FB
:10063000700003CF3FB7F8948091650190916601F7
:10064000A0916701B091680126B5A89B05C02F3F16
:1006500019F00196A11DB11D3FBFBA2FA92F982FE8
:100660008827BC01CD01620F711D811D911D42E0E3
:10067000660F771F881F991F4A95D1F708958F92AB
:100680009F92AF92BF92CF92DF92EF92FF924B0177
:100690005C010E941A036B017C010E941A036C1911
:1006A0007D098E099F09683E734081059105A8F375
:1006B00021E0821A9108A108B10888EEC80E83E0F3
:1006C000D81EE11CF11C81149104A104B10429F786
:1006D000FF90EF90DF90CF90BF90AF909F908F9062
:1006E0000895089590E080E00895CF93DF931092ED
:1006F0005D0110925C01C0915C01D0915D01CB3530
:10070000D1057CF4CE010E948D0064E170E080E0B0
:1007100090E00E943F032296D0935D01C0935C015C
:10072000EACF8AE590E090935D0180935C01C091EF
:100730005C01D0915D01D7FD0FC0CE010E948D00FC
:1007400064E170E080E090E00E943F032297D09344
:100750005D01C0935C01EBCFDF91CF910895FC0167
:1007600001900020E9F73197AF01481B590BBC01FC
:1007700081EA91E00C940901CF93DF93EC0160E0F2
:100780008E810E94880161E08E810E94880160E074
:100790008E810E9488018BE891E00197F1F7DF914B
:1007A000CF910895CF92DF92EF92FF920F931F9314
:1007B000CF93DF936C017C0187E0E80EF11CD0E061
:1007C000C0E0062F10E0B8010C2E02C075956795A9
:1007D0000A94E2F76170F70181917F010E9488011C
:1007E0002196C430D10579F7C601DF91CF911F91D1
:1007F0000F91FF90EF90DF90CF900C94BC03CF92BD
:10080000DF92EF92FF920F931F93CF93DF93EC0150
:10081000F62E642F8C810E9488018D818F3F19F004
:1008200060E00E9488010F2D10E08F8584FF25C0B5
:100830006E0187E0C80ED11CF12CE12CB8010E2C02
:1008400002C0759567950A94E2F76170F60181918F
:100850006F010E948801FFEFEF1AFF0A88E0E81697
:10086000F10461F7CE01DF91CF911F910F91FF90BD
:10087000EF90DF90CF900C94BC03B80184E07595A5
:1008800067958A95E1F7CE010E94D2036F2DCE01C4
:10089000DF91CF911F910F91FF90EF90DF90CF905C
:1008A0000C94D20340E0682F81EA91E00C94FF039E
:1008B00081E00E9452048BE39FE10197F1F70895D4
:1008C000E1E08091B4018111E0E0E195F0E0EF55C5
:1008D000FE4F848980680C94520441E00E94FF031B
:1008E00081E090E008951F920F920FB60F921124AD
:1008F0002F933F934F935F936F937F938F939F9328
:10090000AF93BF93EF93FF9380916E0190916F012E
:10091000A0917001B0917101892B8A2B8B2BD1F1A1
:1009200090916901E0916A01F0916B0180818927C2
:10093000808380916E0190916F01A0917001B091C0
:100940007101181619061A061B069CF480916E0197
:1009500090916F01A0917001B09171010197A1096F
:10096000B10980936E0190936F01A0937001B093D1
:100970007101FF91EF91BF91AF919F918F917F9105
:100980006F915F914F913F912F910F900FBE0F90FC
:100990001F901895809100010E94B601EACF1F9226
:1009A0000F920FB60F9211242F933F938F939F9323
:1009B000AF93BF938091610190916201A091630117
:1009C000B09164013091600123E0230F2D3758F579
:1009D0000196A11DB11D2093600180936101909348
:1009E0006201A0936301B0936401809165019091CD
:1009F0006601A0916701B09168010196A11DB11D2A
:100A00008093650190936601A0936701B09368019C
:100A1000BF91AF919F918F913F912F910F900FBEFA
:100A20000F901F90189526E8230F0296A11DB11D67
:100A3000D2CF1F920F920FB60F9211242F933F9394
:100A40004F935F936F937F938F939F93AF93BF93D6
:100A5000CF93DF93EF93FF9380915F01C0915E018D
:100A6000D0E087FF24C0109285001092840080910E
:100A70005F018F5F80935F0180915F01082E000C02
:100A8000990B8C179D0724F480915F018C30C4F181
:100A90008091840090918500049680349C4908F4EC
:100AA0007AC08091840090918500049676C08091F0
:100AB0005F01082E000C990B8C179D07C4F6E0917E
:100AC0005F018E2FEE0F990BFC01EE0FFF1FE80F59
:100AD000F91FE658FE4F808186FFC9CFE0915F0184
:100AE0008E2FEE0F990BFC01EE0FFF1FE80FF91F81
:100AF000E658FE4F808160E08F730E948801B7CF77
:100B00002091840030918500E0915F018E2FEE0FDF
:100B1000990BFC01EE0FFF1FE80FF91FE658FE4F7F
:100B200081819281820F931F909389008093880026
:100B3000E0915F018E2FEE0F990BFC01EE0FFF1F6E
:100B4000E80FF91FE658FE4F808186FF11C0E09143
:100B50005F018E2FEE0F990BFC01EE0FFF1FE80FC8
:100B6000F91FE658FE4F808161E08F730E94880173
:100B7000FF91EF91DF91CF91BF91AF919F918F91B5
:100B80007F916F915F914F913F912F910F900FBE89
:100B90000F901F90189580E49CE9909389008093B2
:100BA00088008FEF80935F01E3CF789484B58260F3
:100BB00084BD84B5816084BD85B5826085BD85B501
:100BC000816085BD80916E00816080936E0010927F
:100BD00081008091810082608093810080918100FA
:100BE000816080938100809180008160809380008B
:100BF0008091B10084608093B1008091B0008160E9
:100C00008093B00080917A00846080937A00809114
:100C10007A00826080937A0080917A00816080936C
:100C20007A0080917A00806880937A001092C100E7
:100C300060E082E00E94E20160E083E00E94E20165
:100C400061E087E00E94E20161E086E00E94E2014B
:100C500061E084E00E94E20180919E018C3008F006
:100C600051C061E085E00E94E20180919E01282F41
:100C700030E0F901EE0FFF1FE20FF31FE658FE4FC1
:100C80009081907C9560908310929F011092A001BA
:100C90002CE0622F0E947708829FB001112430E07F
:100CA00020E0AB01420F531FFA01EE0FFF1FE40FCC
:100CB000F51FE658FE4F908196FD16C02F5F3F4FFF
:100CC0002C30310571F781110FC01092800082E045
:100CD000809381001092850010928400B19A8091D7
:100CE0006F00826080936F00E0919E018E2F90E0F4
:100CF000FC01EE0FFF1FE80FF91FE658FE4F808141
:100D000080648083C0E0D0E082E00E945F010197B0
:100D1000A1F583E00E945F01892B79F50E946004B0
:100D20008DE091E00E94AF0361E087E00E948801BE
:100D300060E086E00E94880160EA7FE084E00E9433
:100D4000130268EC70E080E090E00E943F0384E0D2
:100D50000E94B60164E670E080E090E00E943F03EC
:100D600068EC70E080E090E00E943F030E9458042D
:100D7000209751F20E940000C7CF83E00E945F01DC
:100D80000197C1F182E00E945F01019709F053C011
:100D900083E00E945F01019709F04DC00E9460044A
:100DA0008EE291E00E94AF0368EC70E080E090E09A
:100DB0000E943F0361E087E00E94880160E086E0D6
:100DC0000E94880168E873E184E00E94130268ECE5
:100DD00070E080E090E00E943F030E9475030E9453
:100DE000580480E491E00E94AF0360E087E00E9435
:100DF0008801ADCF82E00E945F01892B19F60E9425
:100E000060048DE191E00E94AF0361E087E00E9401
:100E1000880160E086E00E94880160EA7FE084E06B
:100E20000E94130268EC70E080E090E00E943F03B3
:100E30000E9475038CCF83E00E945F01892B09F02B
:100E40008FCF82E00E945F01892B09F089CF0E9439
:100E5000600482E591E00E94AF0361E086E00E94B9
:100E6000880160E087E00E9488017ACFCF93DF930A
:100E70001092A4011092A30185E091E09093A20149
:100E80008093A1018DE08093A5018FEF8093A6014F
:100E90008CE08093A7018BE08093A8018AE0809387
:100EA000A90189E08093AA0188E08093AB011092A8
:100EB000AC011092AD011092AE011092AF011092F0
:100EC000B00181E08093B4011092B50180E4809379
:100ED000B60180E18093B70180E58093B80161E0BD
:100EE0008DE00E94E2018091A6018F3F19F061E040
:100EF0000E94E20161E08091A7010E94E201C1EA43
:100F0000D1E09E01215A31408091B00184FD0BC097
:100F100084E090E021962817390744F461E08E813F
:100F20000E94E201EECF88E090E0F4CF8BE39DE0F9
:100F30000197F1F760E08091A5010E94880160E0CF
:100F40008091A7010E9488018091A6018F3F19F02E
:100F500060E00E9488018091B00184FD4BC063E095
:100F600081EA91E00E94D203CBE4D6E4CE0101975E
:100F7000F1F763E081EA91E00E94D2032197F1F753
:100F800063E081EA91E00E94D20383E592E0019759
:100F9000F1F762E081EA91E00E94D2038091B00112
:100FA00080620E94520484E08093B1018CE00E9430
:100FB00052040E94580482E08093B20186E00E94AD
:100FC000520480915E018C3058F591E0980F909317
:100FD0005E0180939E0190E0FC01EE0FFF1FE80F81
:100FE000F91FE658FE4F88EB9BE092838183DF91E7
:100FF000CF91089580620E9452048BE496E4019799
:10100000F1F78091B00180620E94520483E592E082
:101010000197F1F78091B00180620E945204BECF27
:101020008FEF80939E01E3CF052E97FB1EF4009473
:101030000E942B0857FD07D00E94460807FC03D0EA
:101040004EF40C942B0850954095309521953F4FC8
:101050004F4F5F4F089590958095709561957F4FA4
:101060008F4F9F4F08950E946808A59F900DB49FD1
:10107000900DA49F800D911D11240895B7FF0C942D
:1010800033080E943308821B930B0895A1E21A2EA5
:10109000AA1BBB1BFD010DC0AA1FBB1FEE1FFF1F1C
:1010A000A217B307E407F50720F0A21BB30BE40B6C
:1010B000F50B661F771F881F991F1A9469F76095B3
:1010C0007095809590959B01AC01BD01CF0108956D
:1010D000A29FB001B39FC001A39F700D811D112479
:1010E000911DB29F700D811D1124911D0895991BB2
:1010F00079E004C0991F961708F0961B881F7A950F
:10110000C9F780950895EE0FFF1F0590F491E02D2B
:061110000994F894FFCFE2
:10111600FF000000006D040901720371034761734B
:1011260020446574616374656421212100466972F7
:1011360065204465746563746564212121004761F7
:10114600732C466972652044657465637465640032
:10115600456D657267656E637920416C65727421B1
:0C116600210053616665204E6F77210068
:00000001FF
